{
  "_format": "hh-sol-artifact-1",
  "contractName": "NFTMarket",
  "sourceName": "contracts/NFTMarket.sol",
  "abi": [
    {
      "inputs": [],
      "stateMutability": "nonpayable",
      "type": "constructor"
    },
    {
      "anonymous": false,
      "inputs": [
        {
          "indexed": true,
          "internalType": "uint256",
          "name": "itemId",
          "type": "uint256"
        },
        {
          "indexed": true,
          "internalType": "address",
          "name": "nftContract",
          "type": "address"
        },
        {
          "indexed": true,
          "internalType": "uint256",
          "name": "tokenId",
          "type": "uint256"
        },
        {
          "indexed": false,
          "internalType": "address",
          "name": "seller",
          "type": "address"
        },
        {
          "indexed": false,
          "internalType": "address",
          "name": "owner",
          "type": "address"
        },
        {
          "indexed": false,
          "internalType": "uint256",
          "name": "price",
          "type": "uint256"
        },
        {
          "indexed": false,
          "internalType": "bool",
          "name": "sold",
          "type": "bool"
        }
      ],
      "name": "MarketItemCreated",
      "type": "event"
    },
    {
      "inputs": [
        {
          "internalType": "address",
          "name": "nftContract",
          "type": "address"
        },
        {
          "internalType": "uint256",
          "name": "tokenId",
          "type": "uint256"
        },
        {
          "internalType": "uint256",
          "name": "price",
          "type": "uint256"
        }
      ],
      "name": "createMarketItem",
      "outputs": [],
      "stateMutability": "payable",
      "type": "function"
    },
    {
      "inputs": [
        {
          "internalType": "address",
          "name": "nftContract",
          "type": "address"
        },
        {
          "internalType": "uint256",
          "name": "itemId",
          "type": "uint256"
        }
      ],
      "name": "createMarketSale",
      "outputs": [],
      "stateMutability": "payable",
      "type": "function"
    },
    {
      "inputs": [],
      "name": "fetchItemsCreated",
      "outputs": [
        {
          "components": [
            {
              "internalType": "uint256",
              "name": "itemId",
              "type": "uint256"
            },
            {
              "internalType": "address",
              "name": "nftContract",
              "type": "address"
            },
            {
              "internalType": "uint256",
              "name": "tokenId",
              "type": "uint256"
            },
            {
              "internalType": "address payable",
              "name": "seller",
              "type": "address"
            },
            {
              "internalType": "address payable",
              "name": "owner",
              "type": "address"
            },
            {
              "internalType": "uint256",
              "name": "price",
              "type": "uint256"
            },
            {
              "internalType": "bool",
              "name": "sold",
              "type": "bool"
            }
          ],
          "internalType": "struct NFTMarket.MarketItem[]",
          "name": "",
          "type": "tuple[]"
        }
      ],
      "stateMutability": "view",
      "type": "function"
    },
    {
      "inputs": [],
      "name": "fetchMarketItems",
      "outputs": [
        {
          "components": [
            {
              "internalType": "uint256",
              "name": "itemId",
              "type": "uint256"
            },
            {
              "internalType": "address",
              "name": "nftContract",
              "type": "address"
            },
            {
              "internalType": "uint256",
              "name": "tokenId",
              "type": "uint256"
            },
            {
              "internalType": "address payable",
              "name": "seller",
              "type": "address"
            },
            {
              "internalType": "address payable",
              "name": "owner",
              "type": "address"
            },
            {
              "internalType": "uint256",
              "name": "price",
              "type": "uint256"
            },
            {
              "internalType": "bool",
              "name": "sold",
              "type": "bool"
            }
          ],
          "internalType": "struct NFTMarket.MarketItem[]",
          "name": "",
          "type": "tuple[]"
        }
      ],
      "stateMutability": "view",
      "type": "function"
    },
    {
      "inputs": [],
      "name": "fetchMyNFTs",
      "outputs": [
        {
          "components": [
            {
              "internalType": "uint256",
              "name": "itemId",
              "type": "uint256"
            },
            {
              "internalType": "address",
              "name": "nftContract",
              "type": "address"
            },
            {
              "internalType": "uint256",
              "name": "tokenId",
              "type": "uint256"
            },
            {
              "internalType": "address payable",
              "name": "seller",
              "type": "address"
            },
            {
              "internalType": "address payable",
              "name": "owner",
              "type": "address"
            },
            {
              "internalType": "uint256",
              "name": "price",
              "type": "uint256"
            },
            {
              "internalType": "bool",
              "name": "sold",
              "type": "bool"
            }
          ],
          "internalType": "struct NFTMarket.MarketItem[]",
          "name": "",
          "type": "tuple[]"
        }
      ],
      "stateMutability": "view",
      "type": "function"
    },
    {
      "inputs": [],
      "name": "getListingPrice",
      "outputs": [
        {
          "internalType": "uint256",
          "name": "",
          "type": "uint256"
        }
      ],
      "stateMutability": "view",
      "type": "function"
    }
  ],
  "bytecode": "0x60806040526658d15e1762800060045534801561001b57600080fd5b50600160008190555033600360006101000a81548173ffffffffffffffffffffffffffffffffffffffff021916908373ffffffffffffffffffffffffffffffffffffffff1602179055506118bc806100746000396000f3fe6080604052600436106100555760003560e01c80630f08efe01461005a57806312e8558514610085578063202e3740146100b057806358eb2df5146100db578063c23b139e146100f7578063f064c32e14610113575b600080fd5b34801561006657600080fd5b5061006f61013e565b60405161007c9190611343565b60405180910390f35b34801561009157600080fd5b5061009a610408565b6040516100a79190611374565b60405180910390f35b3480156100bc57600080fd5b506100c5610412565b6040516100d29190611343565b60405180910390f35b6100f560048036038101906100f091906113ec565b610760565b005b610111600480360381019061010c919061143f565b610ac4565b005b34801561011f57600080fd5b50610128610d7d565b6040516101359190611343565b60405180910390f35b6060600061014c60016110cb565b9050600061015a60026110cb565b61016460016110cb565b61016e91906114ae565b90506000808267ffffffffffffffff81111561018d5761018c6114e2565b5b6040519080825280602002602001820160405280156101c657816020015b6101b36110ef565b8152602001906001900390816101ab5790505b50905060005b848110156103fd57600073ffffffffffffffffffffffffffffffffffffffff16600560006001846101fd9190611511565b815260200190815260200160002060040160009054906101000a900473ffffffffffffffffffffffffffffffffffffffff1673ffffffffffffffffffffffffffffffffffffffff1614156103ea57600060018261025a9190611511565b90506000600560008381526020019081526020016000209050806040518060e0016040529081600082015481526020016001820160009054906101000a900473ffffffffffffffffffffffffffffffffffffffff1673ffffffffffffffffffffffffffffffffffffffff1673ffffffffffffffffffffffffffffffffffffffff168152602001600282015481526020016003820160009054906101000a900473ffffffffffffffffffffffffffffffffffffffff1673ffffffffffffffffffffffffffffffffffffffff1673ffffffffffffffffffffffffffffffffffffffff1681526020016004820160009054906101000a900473ffffffffffffffffffffffffffffffffffffffff1673ffffffffffffffffffffffffffffffffffffffff1673ffffffffffffffffffffffffffffffffffffffff168152602001600582015481526020016006820160009054906101000a900460ff1615151515815250508486815181106103cd576103cc611567565b5b60200260200101819052506001856103e59190611511565b945050505b80806103f590611596565b9150506101cc565b508094505050505090565b6000600454905090565b6060600061042060016110cb565b905060008060005b838110156104c9573373ffffffffffffffffffffffffffffffffffffffff16600560006001846104589190611511565b815260200190815260200160002060040160009054906101000a900473ffffffffffffffffffffffffffffffffffffffff1673ffffffffffffffffffffffffffffffffffffffff1614156104b6576001836104b39190611511565b92505b80806104c190611596565b915050610428565b5060008267ffffffffffffffff8111156104e6576104e56114e2565b5b60405190808252806020026020018201604052801561051f57816020015b61050c6110ef565b8152602001906001900390816105045790505b50905060005b84811015610755573373ffffffffffffffffffffffffffffffffffffffff16600560006001846105559190611511565b815260200190815260200160002060040160009054906101000a900473ffffffffffffffffffffffffffffffffffffffff1673ffffffffffffffffffffffffffffffffffffffff1614156107425760006001826105b29190611511565b90506000600560008381526020019081526020016000209050806040518060e0016040529081600082015481526020016001820160009054906101000a900473ffffffffffffffffffffffffffffffffffffffff1673ffffffffffffffffffffffffffffffffffffffff1673ffffffffffffffffffffffffffffffffffffffff168152602001600282015481526020016003820160009054906101000a900473ffffffffffffffffffffffffffffffffffffffff1673ffffffffffffffffffffffffffffffffffffffff1673ffffffffffffffffffffffffffffffffffffffff1681526020016004820160009054906101000a900473ffffffffffffffffffffffffffffffffffffffff1673ffffffffffffffffffffffffffffffffffffffff1673ffffffffffffffffffffffffffffffffffffffff168152602001600582015481526020016006820160009054906101000a900460ff16151515158152505084868151811061072557610724611567565b5b602002602001018190525060018561073d9190611511565b945050505b808061074d90611596565b915050610525565b508094505050505090565b600260005414156107a6576040517f08c379a000000000000000000000000000000000000000000000000000000000815260040161079d9061163c565b60405180910390fd5b6002600081905550600081116107f1576040517f08c379a00000000000000000000000000000000000000000000000000000000081526004016107e8906116a8565b60405180910390fd5b6004543414610835576040517f08c379a000000000000000000000000000000000000000000000000000000000815260040161082c9061173a565b60405180910390fd5b61083f60016110d9565b600061084b60016110cb565b90506040518060e001604052808281526020018573ffffffffffffffffffffffffffffffffffffffff1681526020018481526020013373ffffffffffffffffffffffffffffffffffffffff168152602001600073ffffffffffffffffffffffffffffffffffffffff16815260200183815260200160001515815250600560008381526020019081526020016000206000820151816000015560208201518160010160006101000a81548173ffffffffffffffffffffffffffffffffffffffff021916908373ffffffffffffffffffffffffffffffffffffffff1602179055506040820151816002015560608201518160030160006101000a81548173ffffffffffffffffffffffffffffffffffffffff021916908373ffffffffffffffffffffffffffffffffffffffff16021790555060808201518160040160006101000a81548173ffffffffffffffffffffffffffffffffffffffff021916908373ffffffffffffffffffffffffffffffffffffffff16021790555060a0820151816005015560c08201518160060160006101000a81548160ff0219169083151502179055509050508373ffffffffffffffffffffffffffffffffffffffff166323b872dd3330866040518463ffffffff1660e01b8152600401610a2c93929190611769565b600060405180830381600087803b158015610a4657600080fd5b505af1158015610a5a573d6000803e3d6000fd5b50505050828473ffffffffffffffffffffffffffffffffffffffff16827f045dfa01dcba2b36aba1d3dc4a874f4b0c5d2fbeb8d2c4b34a7d88c8d8f929d1336000876000604051610aae94939291906117af565b60405180910390a4506001600081905550505050565b60026000541415610b0a576040517f08c379a0000000000000000000000000000000000000000000000000000000008152600401610b019061163c565b60405180910390fd5b6002600081905550600060056000838152602001908152602001600020600501549050600060056000848152602001908152602001600020600201549050813414610b8a576040517f08c379a0000000000000000000000000000000000000000000000000000000008152600401610b8190611866565b60405180910390fd5b6005600084815260200190815260200160002060030160009054906101000a900473ffffffffffffffffffffffffffffffffffffffff1673ffffffffffffffffffffffffffffffffffffffff166108fc349081150290604051600060405180830381858888f19350505050158015610c06573d6000803e3d6000fd5b508373ffffffffffffffffffffffffffffffffffffffff166323b872dd3033846040518463ffffffff1660e01b8152600401610c4493929190611769565b600060405180830381600087803b158015610c5e57600080fd5b505af1158015610c72573d6000803e3d6000fd5b50505050336005600085815260200190815260200160002060040160006101000a81548173ffffffffffffffffffffffffffffffffffffffff021916908373ffffffffffffffffffffffffffffffffffffffff16021790555060016005600085815260200190815260200160002060060160006101000a81548160ff021916908315150217905550610d0460026110d9565b600360009054906101000a900473ffffffffffffffffffffffffffffffffffffffff1673ffffffffffffffffffffffffffffffffffffffff166108fc6004549081150290604051600060405180830381858888f19350505050158015610d6e573d6000803e3d6000fd5b50505060016000819055505050565b60606000610d8b60016110cb565b905060008060005b83811015610e34573373ffffffffffffffffffffffffffffffffffffffff1660056000600184610dc39190611511565b815260200190815260200160002060030160009054906101000a900473ffffffffffffffffffffffffffffffffffffffff1673ffffffffffffffffffffffffffffffffffffffff161415610e2157600183610e1e9190611511565b92505b8080610e2c90611596565b915050610d93565b5060008267ffffffffffffffff811115610e5157610e506114e2565b5b604051908082528060200260200182016040528015610e8a57816020015b610e776110ef565b815260200190600190039081610e6f5790505b50905060005b848110156110c0573373ffffffffffffffffffffffffffffffffffffffff1660056000600184610ec09190611511565b815260200190815260200160002060030160009054906101000a900473ffffffffffffffffffffffffffffffffffffffff1673ffffffffffffffffffffffffffffffffffffffff1614156110ad576000600182610f1d9190611511565b90506000600560008381526020019081526020016000209050806040518060e0016040529081600082015481526020016001820160009054906101000a900473ffffffffffffffffffffffffffffffffffffffff1673ffffffffffffffffffffffffffffffffffffffff1673ffffffffffffffffffffffffffffffffffffffff168152602001600282015481526020016003820160009054906101000a900473ffffffffffffffffffffffffffffffffffffffff1673ffffffffffffffffffffffffffffffffffffffff1673ffffffffffffffffffffffffffffffffffffffff1681526020016004820160009054906101000a900473ffffffffffffffffffffffffffffffffffffffff1673ffffffffffffffffffffffffffffffffffffffff1673ffffffffffffffffffffffffffffffffffffffff168152602001600582015481526020016006820160009054906101000a900460ff1615151515815250508486815181106110905761108f611567565b5b60200260200101819052506001856110a89190611511565b945050505b80806110b890611596565b915050610e90565b508094505050505090565b600081600001549050919050565b6001816000016000828254019250508190555050565b6040518060e0016040528060008152602001600073ffffffffffffffffffffffffffffffffffffffff16815260200160008152602001600073ffffffffffffffffffffffffffffffffffffffff168152602001600073ffffffffffffffffffffffffffffffffffffffff168152602001600081526020016000151581525090565b600081519050919050565b600082825260208201905092915050565b6000819050602082019050919050565b6000819050919050565b6111af8161119c565b82525050565b600073ffffffffffffffffffffffffffffffffffffffff82169050919050565b60006111e0826111b5565b9050919050565b6111f0816111d5565b82525050565b6000611201826111b5565b9050919050565b611211816111f6565b82525050565b60008115159050919050565b61122c81611217565b82525050565b60e08201600082015161124860008501826111a6565b50602082015161125b60208501826111e7565b50604082015161126e60408501826111a6565b5060608201516112816060850182611208565b5060808201516112946080850182611208565b5060a08201516112a760a08501826111a6565b5060c08201516112ba60c0850182611223565b50505050565b60006112cc8383611232565b60e08301905092915050565b6000602082019050919050565b60006112f082611170565b6112fa818561117b565b93506113058361118c565b8060005b8381101561133657815161131d88826112c0565b9750611328836112d8565b925050600181019050611309565b5085935050505092915050565b6000602082019050818103600083015261135d81846112e5565b905092915050565b61136e8161119c565b82525050565b60006020820190506113896000830184611365565b92915050565b600080fd5b61139d816111d5565b81146113a857600080fd5b50565b6000813590506113ba81611394565b92915050565b6113c98161119c565b81146113d457600080fd5b50565b6000813590506113e6816113c0565b92915050565b6000806000606084860312156114055761140461138f565b5b6000611413868287016113ab565b9350506020611424868287016113d7565b9250506040611435868287016113d7565b9150509250925092565b600080604083850312156114565761145561138f565b5b6000611464858286016113ab565b9250506020611475858286016113d7565b9150509250929050565b7f4e487b7100000000000000000000000000000000000000000000000000000000600052601160045260246000fd5b60006114b98261119c565b91506114c48361119c565b9250828210156114d7576114d661147f565b5b828203905092915050565b7f4e487b7100000000000000000000000000000000000000000000000000000000600052604160045260246000fd5b600061151c8261119c565b91506115278361119c565b9250827fffffffffffffffffffffffffffffffffffffffffffffffffffffffffffffffff0382111561155c5761155b61147f565b5b828201905092915050565b7f4e487b7100000000000000000000000000000000000000000000000000000000600052603260045260246000fd5b60006115a18261119c565b91507fffffffffffffffffffffffffffffffffffffffffffffffffffffffffffffffff8214156115d4576115d361147f565b5b600182019050919050565b600082825260208201905092915050565b7f5265656e7472616e637947756172643a207265656e7472616e742063616c6c00600082015250565b6000611626601f836115df565b9150611631826115f0565b602082019050919050565b6000602082019050818103600083015261165581611619565b9050919050565b7f5072696365206d757374206265206174206c6561737420312077656900000000600082015250565b6000611692601c836115df565b915061169d8261165c565b602082019050919050565b600060208201905081810360008301526116c181611685565b9050919050565b7f5072696365206d75737420626520657175616c20746f206c697374696e67207060008201527f7269636500000000000000000000000000000000000000000000000000000000602082015250565b60006117246024836115df565b915061172f826116c8565b604082019050919050565b6000602082019050818103600083015261175381611717565b9050919050565b611763816111d5565b82525050565b600060608201905061177e600083018661175a565b61178b602083018561175a565b6117986040830184611365565b949350505050565b6117a981611217565b82525050565b60006080820190506117c4600083018761175a565b6117d1602083018661175a565b6117de6040830185611365565b6117eb60608301846117a0565b95945050505050565b7f506c65617365207375626d6974207468652061736b696e67207072696365206960008201527f6e206f7264657220746f20636f6d706c65746520746865207075726368617365602082015250565b60006118506040836115df565b915061185b826117f4565b604082019050919050565b6000602082019050818103600083015261187f81611843565b905091905056fea2646970667358221220f2375ed182459fdd81e0b4e8fe2eb5532e2dac25848a5e8fb4cd8da22457851264736f6c63430008090033",
  "linkReferences": {},
  "deployedLinkReferences": {}
}